:100000000C942A000C9451010C9478010C949F01DB
:100010000C943C000C943C000C943C000C943C0070
:100020000C943C000C943C000C943C000C943C0060
:100030000C943C000C943C000C943C000C943C0050
:100040000C943C000C943C000C943C000C943C0040
:100050000C943C0011241FBECFE5D8E0DEBFCDBF1D
:1000600020E0A0E6B0E001C01D92A636B207E1F79D
:100070000E94CF010C94E4010C940000813011F136
:1000800030F08230D1F1833009F452C0089541300C
:1000900059F42AB381E090E002C0880F991F6A9555
:1000A000E2F7822B8ABB089541115CC02AB381E03C
:1000B00090E002C0880F991F6A95E2F7809582232D
:1000C0008ABB0895413059F427B381E090E002C023
:1000D000880F991F6A95E2F7822B87BB089541111B
:1000E00041C027B381E090E002C0880F991F6A9554
:1000F000E2F78095822387BB0895413059F424B3F9
:1001000081E090E002C0880F991F6A95E2F7822B88
:1001100084BB0895411126C024B381E090E002C061
:10012000880F991F6A95E2F78095822384BB089512
:10013000413059F421B381E090E002C0880F991F4B
:100140006A95E2F7822B81BB089541110BC021B360
:1001500081E090E002C0880F991F6A95E2F78095D0
:10016000822381BB0895813089F028F08230C9F064
:10017000833011F108952BB381E090E002C0880F25
:10018000991F6A95E2F782278BBB089528B381E017
:1001900090E002C0880F991F6A95E2F7822788BB1A
:1001A000089525B381E090E002C0880F991F6A95F9
:1001B000E2F7822785BB089522B381E090E002C078
:1001C000880F991F6A95E2F7822782BB08958130D4
:1001D00061F120F0823009F44FC00895613069F078
:1001E00028F0623089F06330B1F01BC085B78160C0
:1001F00085BF85B7826085BF14C085B78E7F85BFF8
:1002000085B7826085BF0DC085B7816085BF85B722
:100210008D7F85BF06C085B78E7F85BF85B78D7FF3
:1002200085BF8BB780648BBF0895613069F028F07B
:10023000623089F06330B1F01BC085B7846085BF40
:1002400085B7886085BF14C085B78B7F85BF85B7AC
:10025000886085BF0DC085B7846085BF85B7877FFF
:1002600085BF06C085B78B7F85BF85B7877F85BF74
:100270008BB780688BBF0895662319F0613029F031
:1002800007C084B7806484BF03C084B78F7B84BFFA
:100290008BB780628BBF0895909365008093640054
:1002A00008951F920F920FB60F9211242F933F9330
:1002B0004F935F936F937F938F939F93AF93BF936E
:1002C000EF93FF93E0916400F09165000995FF9131
:1002D000EF91BF91AF919F918F917F916F915F91BE
:1002E0004F913F912F910F900FBE0F901F90189537
:1002F0001F920F920FB60F9211242F933F934F939B
:100300005F936F937F938F939F93AF93BF93EF937D
:10031000FF93E0916200F09163000995FF91EF91E6
:10032000BF91AF919F918F917F916F915F914F910D
:100330003F912F910F900FBE0F901F9018951F9215
:100340000F920FB60F9211242F933F934F935F9309
:100350006F937F938F939F93AF93BF93EF93FF938D
:10036000E0916000F09161000995FF91EF91BF91DC
:10037000AF919F918F917F916F915F914F913F913D
:100380002F910F900FBE0F901F9018958FB7806818
:100390008FBF089560E083E00E94B300089541E0BC
:1003A00060E083E00E943E0040E062E083E00E9463
:1003B0003E008AEC91E00E944C0160E080E00E94E7
:0C03C000E7000E94C601FFCFF894FFCFB9
:00000001FF
