S00B00005353442E737265632F
S11300000C942A000C9434000C9434000C943400A6
S11300100C9434000C9434000C9434000C9434008C
S11300200C9434000C9434000C9434000C9434007C
S11300300C9434000C9434000C9434000C9434006C
S11300400C9434000C9434000C9434000C9434005C
S11300500C94340011241FBECFE5D8E0DEBFCDBF21
S11300600E9420010C94A2010C940000813011F133
S113007030F08230D1F1833009F452C00895413018
S113008059F42AB381E090E002C0880F991F6A9561
S1130090E2F7822B8ABB089541115CC02AB381E048
S11300A090E002C0880F991F6A95E2F78095822339
S11300B08ABB0895413059F427B381E090E002C02F
S11300C0880F991F6A95E2F7822B87BB0895411127
S11300D041C027B381E090E002C0880F991F6A9560
S11300E0E2F78095822387BB0895413059F424B305
S11300F081E090E002C0880F991F6A95E2F7822B95
S113010084BB0895411126C024B381E090E002C06D
S1130110880F991F6A95E2F78095822384BB08951E
S1130120413059F421B381E090E002C0880F991F57
S11301306A95E2F7822B81BB089541110BC021B36C
S113014081E090E002C0880F991F6A95E2F78095DC
S1130150822381BB0895813011F130F08230D1F1D6
S1130160833009F452C00895413059F42BB381E02F
S113017090E002C0880F991F6A95E2F7822B8BBB2F
S1130180089541115CC02BB381E090E002C0880F58
S1130190991F6A95E2F7809582238BBB08954130BD
S11301A059F428B381E090E002C0880F991F6A9542
S11301B0E2F7822B88BB0895411141C028B381E046
S11301C090E002C0880F991F6A95E2F78095822318
S11301D088BB0895413059F425B381E090E002C012
S11301E0880F991F6A95E2F7822B85BB0895411108
S11301F026C025B381E090E002C0880F991F6A955C
S1130200E2F78095822385BB0895413059F422B3E7
S113021081E090E002C0880F991F6A95E2F7822B73
S113022082BB089541110BC022B381E090E002C06B
S1130230880F991F6A95E2F78095822382BB0895FF
S113024041E061E081E00E94360041E062E081E04B
S11302500E94360041E063E081E00E94360041E004
S113026064E080E00E94360041E065E080E00E94A6
S1130270360041E066E080E00E94360041E067E03D
S113028080E00E9436000E945701C0E00DC08C2F10
S11302900E949F012FEF84E39CE021508040904016
S11302A0E1F700C00000CF5FCB3088F3EECF41E030
S11302B061E081E00E94AB0041E062E081E00E94E5
S11302C0AB0040E063E081E00E94AB000895CF936F
S11302D0C82F80FF06C041E064E080E00E94AB00CC
S11302E005C040E064E080E00E94AB00C1FF06C0AE
S11302F041E065E080E00E94AB0005C040E065E0BD
S113030080E00E94AB00C2FF06C041E066E080E0EE
S11303100E94AB0005C040E066E080E00E94AB00B4
S1130320C3FF06C041E067E080E00E94AB0005C067
S113033040E067E080E00E94AB00CF9108950E9406
S10B034067010895F894FFCF52
S9030000FC
