S01000004C43445F4D4F44452E73726563BD
S11300000C942A000C943F000C943F000C943F0085
S11300100C943F000C943F000C943F000C943F0060
S11300200C943F000C943F000C943F000C943F0050
S11300300C943F000C943F000C943F000C943F0040
S11300400C943F000C943F000C943F000C943F0030
S11300500C943F0011241FBECFE5D8E0DEBFCDBF16
S113006010E0A0E6B0E0E4E2F5E002C005900D92F5
S1130070A636B107D9F70E9454020C9490020C944E
S11300800000813011F130F08230D1F1833009F475
S113009052C00895413059F42AB381E090E002C07F
S11300A0880F991F6A95E2F7822B8ABB0895411144
S11300B05CC02AB381E090E002C0880F991F6A9562
S11300C0E2F7809582238ABB0895413059F427B31F
S11300D081E090E002C0880F991F6A95E2F7822BB5
S11300E087BB0895411141C027B381E090E002C06D
S11300F0880F991F6A95E2F78095822387BB08953C
S1130100413059F424B381E090E002C0880F991F74
S11301106A95E2F7822B84BB0895411126C024B36B
S113012081E090E002C0880F991F6A95E2F78095FC
S1130130822384BB0895413059F421B381E090E0D7
S113014002C0880F991F6A95E2F7822B81BB08953C
S113015041110BC021B381E090E002C0880F991FC8
S11301606A95E2F78095822381BB0895813011F16D
S113017030F08230D1F1833009F452C00895413017
S113018059F42BB381E090E002C0880F991F6A955F
S1130190E2F7822B8BBB089541115CC02BB381E045
S11301A090E002C0880F991F6A95E2F78095822338
S11301B08BBB0895413059F428B381E090E002C02C
S11301C0880F991F6A95E2F7822B88BB0895411125
S11301D041C028B381E090E002C0880F991F6A955E
S11301E0E2F78095822388BB0895413059F425B302
S11301F081E090E002C0880F991F6A95E2F7822B94
S113020085BB0895411126C025B381E090E002C06A
S1130210880F991F6A95E2F78095822385BB08951C
S1130220413059F422B381E090E002C0880F991F55
S11302306A95E2F7822B82BB089541110BC022B369
S113024081E090E002C0880F991F6A95E2F78095DB
S1130250822382BB0895CF93C82F80FF06C041E05C
S113026064E080E00E94B60005C040E064E080E005
S11302700E94B600C1FF06C041E065E080E00E9434
S1130280B60005C040E065E080E00E94B600C2FF11
S113029006C041E066E080E00E94B60005C040E090
S11302A066E080E00E94B600C3FF06C041E067E05C
S11302B080E00E94B60005C040E067E080E00E9454
S11302C0B600CF910895CF93C82F40E061E081E05C
S11302D00E94B60040E062E081E00E94B6008C2FEC
S11302E082958F700E942B0141E063E081E00E94BF
S11302F0B6008FE99FE00197F1F700C0000040E0ED
S113030063E081E00E94B6008C2F0E942B0141E043
S113031063E081E00E94B6008FE99FE00197F1F766
S113032000C0000040E063E081E00E94B600CF918D
S11303300895CF93C82F41E061E081E00E94B600A8
S113034040E062E081E00E94B6008C2F82958F70BD
S11303500E942B0141E063E081E00E94B6008FE936
S11303609FE00197F1F700C0000040E063E081E006
S11303700E94B6008C2F0E942B0141E063E081E0D3
S11303800E94B6008FE99FE00197F1F700C00000DA
S113039040E063E081E00E94B600CF9108952FEF22
S11303A083EF91E0215080409040E1F700C00000CD
S11303B040E061E081E00E94B60040E062E081E05C
S11303C00E94B60082E00E942B0141E063E081E0DC
S11303D00E94B6008FE99FE00197F1F700C000008A
S11303E040E063E081E00E94B60088E20E9463017D
S11303F090EF9A95F1F78FE00E94630120EF2A9520
S1130400F1F781E00E9463018FE39FE10197F1F727
S113041000C0000086E00E9463019FEF20E782E0B5
S1130420915020408040E1F700C0000008950F93F0
S11304301F93CF938C01C0E003C00E949901CF5F4A
S1130440F801EC0FF11D80818111F7CFCF911F913D
S11304500F91089581E00E9463018FE39FE101976A
S1130460F1F700C000000895811107C088E10E94DF
S1130470630180EF8A95F1F70895813031F48CE1BE
S11304800E94630180EF8A95F1F70895813029F481
S113049080E8860F0E9463010895823021F480EC85
S11304A0860F0E946301089541E061E081E00E94AB
S11304B0410041E062E081E00E94410041E063E0EC
S11304C081E00E94410041E064E080E00E9441003C
S11304D041E065E080E00E94410041E066E080E0A8
S11304E00E94410041E067E080E00E9441000E94D8
S11304F0CF0160E082E00E94460280E690E00E9424
S1130500170280E00E9434022FEF89E698E121501F
S113051080409040E1F700C000000E942A02F1CF21
S1070520F894FFCF79
S10905244D4152494F0055
S9030000FC
