S01000004B59445F6D6F64652E7372656328
S11300000C942A000C943F000C943F000C943F0085
S11300100C943F000C943F000C943F000C943F0060
S11300200C943F000C943F000C943F000C943F0050
S11300300C943F000C943F000C943F000C943F0040
S11300400C943F000C943F000C943F000C943F0030
S11300500C943F0011241FBECFE5D8E0DEBFCDBF16
S113006010E0A0E6B0E0ECE8F6E002C005900D92E6
S1130070A037B107D9F70E9406030C9444030C94EB
S11300800000813011F130F08230D1F1833009F475
S113009052C00895413059F42AB381E090E002C07F
S11300A0880F991F6A95E2F7822B8ABB0895411144
S11300B05CC02AB381E090E002C0880F991F6A9562
S11300C0E2F7809582238ABB0895413059F427B31F
S11300D081E090E002C0880F991F6A95E2F7822BB5
S11300E087BB0895411141C027B381E090E002C06D
S11300F0880F991F6A95E2F78095822387BB08953C
S1130100413059F424B381E090E002C0880F991F74
S11301106A95E2F7822B84BB0895411126C024B36B
S113012081E090E002C0880F991F6A95E2F78095FC
S1130130822384BB0895413059F421B381E090E0D7
S113014002C0880F991F6A95E2F7822B81BB08953C
S113015041110BC021B381E090E002C0880F991FC8
S11301606A95E2F78095822381BB08958130B1F0CE
S113017028F0823019F1833089F1089589B390E031
S113018002C0959587956A95E2F780FF04C081E0E7
S1130190FA0180830895FA011082089586B390E0ED
S11301A002C0959587956A95E2F780FF04C081E0C7
S11301B0FA0180830895FA011082089583B390E0D0
S11301C002C0959587956A95E2F780FF04C081E0A7
S11301D0FA0180830895FA011082089580B390E0B3
S11301E002C0959587956A95E2F780FF04C081E087
S11301F0FA0180830895FA0110820895813011F183
S113020030F08230D1F1833009F452C00895413086
S113021059F42BB381E090E002C0880F991F6A95CE
S1130220E2F7822B8BBB089541115CC02BB381E0B4
S113023090E002C0880F991F6A95E2F780958223A7
S11302408BBB0895413059F428B381E090E002C09B
S1130250880F991F6A95E2F7822B88BB0895411194
S113026041C028B381E090E002C0880F991F6A95CD
S1130270E2F78095822388BB0895413059F425B371
S113028081E090E002C0880F991F6A95E2F7822B03
S113029085BB0895411126C025B381E090E002C0DA
S11302A0880F991F6A95E2F78095822385BB08958C
S11302B0413059F422B381E090E002C0880F991FC5
S11302C06A95E2F7822B82BB089541110BC022B3D9
S11302D081E090E002C0880F991F6A95E2F780954B
S11302E0822382BB0895813041F028F0823039F0B6
S11302F0833039F008956BBB089568BB089565BBDE
S1130300089562BB08957F928F929F92AF92BF929D
S1130310CF92DF92EF92FF920F931F93CF93DF93CD
S1130320CDB7DEB769970FB6F894DEBF0FBECDBF69
S11303305C018FEFF501808324E0298395E09A83A3
S113034086E08B8337E03C8333E03D832E839F83B9
S1130350888780E1E0E6F0E0DE01199601900D92D5
S11303608A95E1F7712C912C4DC0C92CD12CE1E078
S1130370F0E0EC0FFD1FEC0DFD1D808040E0682DCA
S113038080E00E94FE0010E032C0E12EF12CE5E096
S1130390F0E0EC0FFD1FEE0DFF1D0081AE01475E86
S11303A05F4F602F82E00E94B600898D81111EC0CC
S11303B0EE0CFF1CEE0CFF1C81E090E08C0F9D1FE7
S11303C0E80EF91EF701EC0DFD1D8085F501808313
S11303D007C0AE01475E5F4F602F82E00E94B60007
S11303E0898D8823B1F37724739403C01F5F14307D
S11303F060F241E0682D80E00E94FE00F1E07F168B
S113040029F0939483E0891508F0AFCF69960FB66D
S1130410F894DEBF0FBECDBFDF91CF911F910F9136
S1130420FF90EF90DF90CF90BF90AF909F908F9010
S11304307F900895CF93C82F80FF06C041E064E009
S113044081E00E94FE0005C040E064E081E00E947B
S1130450FE00C1FF06C041E065E081E00E94FE00AD
S113046005C040E065E081E00E94FE00C2FF06C0D6
S113047041E066E081E00E94FE0005C040E066E0E5
S113048081E00E94FE00C3FF06C041E067E081E016
S11304900E94FE0005C040E067E081E00E94FE008B
S11304A0CF910895CF93C82F40E061E081E00E948E
S11304B0FE0040E062E081E00E94FE008C2F829505
S11304C08F700E941A0241E063E081E00E94FE0006
S11304D08FE99FE00197F1F700C0000040E063E07E
S11304E081E00E94FE008C2F0E941A0241E063E02A
S11304F081E00E94FE008FE99FE00197F1F700C0C0
S1130500000040E063E081E00E94FE00CF91089586
S1130510CF93C82F41E061E081E00E94FE0040E0FB
S113052062E081E00E94FE008C2F82958F700E9411
S11305301A0241E063E081E00E94FE008FE99FE03F
S11305400197F1F700C0000040E063E081E00E9401
S1130550FE008C2F0E941A0241E063E081E00E94B9
S1130560FE008FE99FE00197F1F700C0000040E032
S113057063E081E00E94FE00CF9108952FEF83EFA6
S113058091E0215080409040E1F700C0000040E03D
S113059061E081E00E94FE0040E062E081E00E94B0
S11305A0FE0082E00E941A0241E063E081E00E94C2
S11305B0FE008FE99FE00197F1F700C0000040E0E2
S11305C063E081E00E94FE0088E20E94520290EF04
S11305D09A95F1F78FE00E94520220EF2A95F1F7E5
S11305E081E00E9452028FE39FE10197F1F700C07E
S11305F0000086E00E9452029FEF20E782E09150C3
S113060020408040E1F700C000000895CF93DF93BD
S11306101F92CDB7DEB741E064E080E00E94410064
S113062041E065E080E00E94410041E066E080E056
S11306300E94410041E067E080E00E94410040E008
S113064063E082E00E94410040E064E082E00E94B6
S1130650410040E065E082E00E94410040E066E045
S113066082E00E94410061E081E00E9473010E94E7
S1130670BE02CE0101960E94830189818733C9F7A6
S10F068085E60E948802F5CFF894FFCFB5
S113068C37383925343536583132332D4E303D2BED
S9030000FC
