S01000004144435F6D6F64652E7372656348
S11300000C942A000C9434000C9434000C943400A6
S11300100C9434000C9434000C9434000C9434008C
S11300200C9434000C9434000C9434000C9434007C
S11300300C9434000C9434000C9434000C9434006C
S11300400C9434000C9434000C9434000C9434005C
S11300500C94340011241FBECFE5D8E0DEBFCDBF21
S11300600E9452010C94C2010C94000087B1806478
S113007087B987B18F7787B987B18F7D87B986B103
S1130080816086B986B1826086B986B1846086B99A
S113009086B1806886B9089597B1907E97B997B173
S11300A0892B87B986B1806486B9349BFECF86B12B
S11300B0806186B984B195B1FB01918380830895F1
S11300C0813011F130F08230D1F1833009F452C023
S11300D00895413059F42AB381E090E002C0880FBA
S11300E0991F6A95E2F7822B8ABB089541115CC07F
S11300F02AB381E090E002C0880F991F6A95E2F765
S1130100809582238ABB0895413059F427B381E056
S113011090E002C0880F991F6A95E2F7822B87BB93
S11301200895411141C027B381E090E002C0880FD7
S1130130991F6A95E2F78095822387BB0895413021
S113014059F424B381E090E002C0880F991F6A95A6
S1130150E2F7822B84BB0895411126C024B381E0C9
S113016090E002C0880F991F6A95E2F78095822378
S113017084BB0895413059F421B381E090E002C07A
S1130180880F991F6A95E2F7822B81BB089541116C
S11301900BC021B381E090E002C0880F991F6A95DB
S11301A0E2F78095822381BB0895813011F130F00C
S11301B08230D1F1833009F452C00895413059F4AA
S11301C02BB381E090E002C0880F991F6A95E2F793
S11301D0822B8BBB089541115CC02BB381E090E06E
S11301E002C0880F991F6A95E2F7809582238BBB22
S11301F00895413059F428B381E090E002C0880F9B
S1130200991F6A95E2F7822B88BB0895411141C07A
S113021028B381E090E002C0880F991F6A95E2F745
S11302208095822388BB0895413059F425B381E039
S113023090E002C0880F991F6A95E2F7822B85BB74
S11302400895411126C025B381E090E002C0880FD3
S1130250991F6A95E2F78095822385BB0895413002
S113026059F422B381E090E002C0880F991F6A9587
S1130270E2F7822B82BB089541110BC022B381E0C7
S113028090E002C0880F991F6A95E2F78095822357
S113029082BB089541E00E94D500089540E00E9489
S11302A0D5000895CF93DF9300D0CDB7DEB740E0FB
S11302B061E080E00E94600041E062E082E00E9430
S11302C0600041E067E082E00E94600041E063E09A
S11302D083E00E9460000E943600BE016F5F7F4F82
S11302E081E00E944C0029813A81A8E8B3E10E9490
S11302F0B301DC01CB01072E7AE0B695A79597955B
S113030087957A95D1F7702DBC016C3D85E078070F
S113031068F462E082E00E944A0167E082E00E94A1
S11303204E0163E083E00E944E01D7CF683B7B40DF
S113033068F462E082E00E944E0167E082E00E947D
S11303404A0163E083E00E944E01C7CF62E082E08D
S11303500E944E0167E082E00E944E0163E083E068
S11303600E944A01BACFA29FB001B39FC001A39FCC
S1130370700D811D1124911DB29F700D811D1124DA
S10B0380911D0895F894FFCFCC
S9030000FC
