S012000044494F5F4D6F64756C652E7372656371
S11300000C942A000C9434000C9434000C943400A6
S11300100C9434000C9434000C9434000C9434008C
S11300200C9434000C9434000C9434000C9434007C
S11300300C9434000C9434000C9434000C9434006C
S11300400C9434000C9434000C9434000C9434005C
S11300500C94340011241FBECFE5D8E0DEBFCDBF21
S11300600E9468010C94A0010C940000813011F1ED
S113007030F08230D1F1833009F452C00895413018
S113008059F42AB381E090E002C0880F991F6A9561
S1130090E2F7822B8ABB089541115CC02AB381E048
S11300A090E002C0880F991F6A95E2F78095822339
S11300B08ABB0895413059F427B381E090E002C02F
S11300C0880F991F6A95E2F7822B87BB0895411127
S11300D041C027B381E090E002C0880F991F6A9560
S11300E0E2F78095822387BB0895413059F424B305
S11300F081E090E002C0880F991F6A95E2F7822B95
S113010084BB0895411126C024B381E090E002C06D
S1130110880F991F6A95E2F78095822384BB08951E
S1130120413059F421B381E090E002C0880F991F57
S11301306A95E2F7822B81BB089541110BC021B36C
S113014081E090E002C0880F991F6A95E2F78095DC
S1130150822381BB08958130B1F028F0823019F1F7
S1130160833089F1089589B390E002C0959587950D
S11301706A95E2F780FF04C081E0FA018083089564
S1130180FA011082089586B390E002C09595879590
S11301906A95E2F780FF04C081E0FA018083089544
S11301A0FA011082089583B390E002C09595879573
S11301B06A95E2F780FF04C081E0FA018083089524
S11301C0FA011082089580B390E002C09595879556
S11301D06A95E2F780FF04C081E0FA018083089504
S11301E0FA0110820895813011F130F08230D1F19A
S11301F0833009F452C00895413059F42BB381E09F
S113020090E002C0880F991F6A95E2F7822B8BBB9E
S1130210089541115CC02BB381E090E002C0880FC7
S1130220991F6A95E2F7809582238BBB089541302C
S113023059F428B381E090E002C0880F991F6A95B1
S1130240E2F7822B88BB0895411141C028B381E0B5
S113025090E002C0880F991F6A95E2F78095822387
S113026088BB0895413059F425B381E090E002C081
S1130270880F991F6A95E2F7822B85BB0895411177
S113028026C025B381E090E002C0880F991F6A95CB
S1130290E2F78095822385BB0895413059F422B357
S11302A081E090E002C0880F991F6A95E2F7822BE3
S11302B082BB089541110BC022B381E090E002C0DB
S11302C0880F991F6A95E2F78095822382BB08956F
S11302D0CF93DF931F92CDB7DEB781E0898340E0EF
S11302E060E080E00E94360041E060E081E00E942E
S11302F03600AE014F5F5F4F60E080E00E94AB00CC
S11303008981813071F441E060E00E94F3002FEFB5
S113031089E698E1215080409040E1F700C0000058
S1130320E8CF40E060E081E00E94F3002FEF89E62F
S113033098E1215080409040E1F700C00000D9CFFF
S1070340F894FFCF5B
S9030000FC
